{
  "_format": "hh-sol-artifact-1",
  "contractName": "Voting",
  "sourceName": "contracts/Voting.sol",
  "abi": [
    {
      "inputs": [],
      "stateMutability": "nonpayable",
      "type": "constructor"
    },
    {
      "anonymous": false,
      "inputs": [
        {
          "indexed": true,
          "internalType": "address",
          "name": "voter",
          "type": "address"
        },
        {
          "indexed": true,
          "internalType": "uint256",
          "name": "productId",
          "type": "uint256"
        }
      ],
      "name": "FeedBack",
      "type": "event"
    },
    {
      "anonymous": false,
      "inputs": [
        {
          "indexed": true,
          "internalType": "uint256",
          "name": "productId",
          "type": "uint256"
        },
        {
          "indexed": false,
          "internalType": "string",
          "name": "name",
          "type": "string"
        }
      ],
      "name": "ProductAdded",
      "type": "event"
    },
    {
      "inputs": [
        {
          "internalType": "string",
          "name": "name",
          "type": "string"
        },
        {
          "internalType": "string",
          "name": "imageLink",
          "type": "string"
        }
      ],
      "name": "addProduct",
      "outputs": [],
      "stateMutability": "nonpayable",
      "type": "function"
    },
    {
      "inputs": [
        {
          "internalType": "uint256",
          "name": "productId",
          "type": "uint256"
        }
      ],
      "name": "detailProductVote",
      "outputs": [
        {
          "components": [
            {
              "internalType": "uint256",
              "name": "productId",
              "type": "uint256"
            },
            {
              "internalType": "address",
              "name": "reviewer",
              "type": "address"
            },
            {
              "internalType": "uint8",
              "name": "rating",
              "type": "uint8"
            },
            {
              "internalType": "string",
              "name": "reviewText",
              "type": "string"
            },
            {
              "internalType": "string",
              "name": "timestamp",
              "type": "string"
            }
          ],
          "internalType": "struct Voting.ProductFeedBack",
          "name": "",
          "type": "tuple"
        }
      ],
      "stateMutability": "view",
      "type": "function"
    },
    {
      "inputs": [
        {
          "internalType": "uint256",
          "name": "productId",
          "type": "uint256"
        },
        {
          "internalType": "string",
          "name": "reviewText",
          "type": "string"
        },
        {
          "internalType": "uint8",
          "name": "rating",
          "type": "uint8"
        },
        {
          "internalType": "string",
          "name": "timestamp",
          "type": "string"
        }
      ],
      "name": "feedbackProduct",
      "outputs": [],
      "stateMutability": "nonpayable",
      "type": "function"
    },
    {
      "inputs": [
        {
          "internalType": "uint256",
          "name": "limit",
          "type": "uint256"
        },
        {
          "internalType": "uint256",
          "name": "page",
          "type": "uint256"
        }
      ],
      "name": "getPaginationProduct",
      "outputs": [
        {
          "components": [
            {
              "internalType": "uint256",
              "name": "productId",
              "type": "uint256"
            },
            {
              "internalType": "string",
              "name": "name",
              "type": "string"
            },
            {
              "internalType": "string",
              "name": "imageLink",
              "type": "string"
            }
          ],
          "internalType": "struct Voting.Product[]",
          "name": "allProduct",
          "type": "tuple[]"
        }
      ],
      "stateMutability": "view",
      "type": "function"
    },
    {
      "inputs": [],
      "name": "getProductOwners",
      "outputs": [
        {
          "components": [
            {
              "internalType": "uint256",
              "name": "productId",
              "type": "uint256"
            },
            {
              "internalType": "uint8",
              "name": "rate",
              "type": "uint8"
            }
          ],
          "internalType": "struct Voting.ProductOwner[]",
          "name": "",
          "type": "tuple[]"
        }
      ],
      "stateMutability": "view",
      "type": "function"
    },
    {
      "inputs": [
        {
          "internalType": "uint256",
          "name": "productId",
          "type": "uint256"
        }
      ],
      "name": "getRatingProduct",
      "outputs": [
        {
          "internalType": "uint8",
          "name": "",
          "type": "uint8"
        },
        {
          "internalType": "uint256",
          "name": "",
          "type": "uint256"
        }
      ],
      "stateMutability": "view",
      "type": "function"
    },
    {
      "inputs": [],
      "name": "productCount",
      "outputs": [
        {
          "internalType": "uint256",
          "name": "",
          "type": "uint256"
        }
      ],
      "stateMutability": "view",
      "type": "function"
    }
  ],
  "bytecode": "0x60806040523480156200001157600080fd5b5060006040518060600160405280600081526020016040518060400160405280600781526020017f64656661756c740000000000000000000000000000000000000000000000000081525081526020016040518060400160405280600781526020017f64656661756c740000000000000000000000000000000000000000000000000081525081525090508060026000808152602001908152602001600020600082015181600001556020820151816001019081620000d1919062000387565b506040820151816002019081620000e9919062000387565b5090505060008081548092919062000101906200049d565b919050555050620004ea565b600081519050919050565b7f4e487b7100000000000000000000000000000000000000000000000000000000600052604160045260246000fd5b7f4e487b7100000000000000000000000000000000000000000000000000000000600052602260045260246000fd5b600060028204905060018216806200018f57607f821691505b602082108103620001a557620001a462000147565b5b50919050565b60008190508160005260206000209050919050565b60006020601f8301049050919050565b600082821b905092915050565b6000600883026200020f7fffffffffffffffffffffffffffffffffffffffffffffffffffffffffffffffff82620001d0565b6200021b8683620001d0565b95508019841693508086168417925050509392505050565b6000819050919050565b6000819050919050565b600062000268620002626200025c8462000233565b6200023d565b62000233565b9050919050565b6000819050919050565b620002848362000247565b6200029c62000293826200026f565b848454620001dd565b825550505050565b600090565b620002b3620002a4565b620002c081848462000279565b505050565b5b81811015620002e857620002dc600082620002a9565b600181019050620002c6565b5050565b601f82111562000337576200030181620001ab565b6200030c84620001c0565b810160208510156200031c578190505b620003346200032b85620001c0565b830182620002c5565b50505b505050565b600082821c905092915050565b60006200035c600019846008026200033c565b1980831691505092915050565b600062000377838362000349565b9150826002028217905092915050565b62000392826200010d565b67ffffffffffffffff811115620003ae57620003ad62000118565b5b620003ba825462000176565b620003c7828285620002ec565b600060209050601f831160018114620003ff5760008415620003ea578287015190505b620003f6858262000369565b86555062000466565b601f1984166200040f86620001ab565b60005b82811015620004395784890151825560018201915060208501945060208101905062000412565b8683101562000459578489015162000455601f89168262000349565b8355505b6001600288020188555050505b505050505050565b7f4e487b7100000000000000000000000000000000000000000000000000000000600052601160045260246000fd5b6000620004aa8262000233565b91507fffffffffffffffffffffffffffffffffffffffffffffffffffffffffffffffff8203620004df57620004de6200046e565b5b600182019050919050565b611eb380620004fa6000396000f3fe608060405234801561001057600080fd5b506004361061007c5760003560e01c8063764fa2e61161005b578063764fa2e6146100eb578063bd14e1101461011b578063ca2efb551461014c578063e0f6ef87146101685761007c565b8062ede58e146100815780630a9176781461009f578063741cdeb7146100cf575b600080fd5b610089610186565b6040516100969190611081565b60405180910390f35b6100b960048036038101906100b491906110e3565b6102f0565b6040516100c691906112cc565b60405180910390f35b6100e960048036038101906100e4919061144f565b610659565b005b610105600480360381019061010091906114ee565b610ad7565b60405161011291906115d9565b60405180910390f35b610135600480360381019061013091906114ee565b610ce2565b604051610143929190611619565b60405180910390f35b61016660048036038101906101619190611642565b610d92565b005b610170610ee2565b60405161017d91906116ba565b60405180910390f35b60606000600560003373ffffffffffffffffffffffffffffffffffffffff1673ffffffffffffffffffffffffffffffffffffffff168152602001908152602001600020805490500361022e57600167ffffffffffffffff8111156101ed576101ec6112f8565b5b60405190808252806020026020018201604052801561022657816020015b610213610ee8565b81526020019060019003908161020b5790505b5090506102ed565b600560003373ffffffffffffffffffffffffffffffffffffffff1673ffffffffffffffffffffffffffffffffffffffff168152602001908152602001600020805480602002602001604051908101604052809291908181526020016000905b828210156102e65783829060005260206000209060020201604051806040016040529081600082015481526020016001820160009054906101000a900460ff1660ff1660ff16815250508152602001906001019061028d565b5050505090505b90565b606081836000821180156103045750600081115b610343576040517f08c379a000000000000000000000000000000000000000000000000000000000815260040161033a90611732565b60405180910390fd5b600160005410156103aa57600167ffffffffffffffff811115610369576103686112f8565b5b6040519080825280602002602001820160405280156103a257816020015b61038f610f05565b8152602001906001900390816103875790505b509250610651565b8467ffffffffffffffff8111156103c4576103c36112f8565b5b6040519080825280602002602001820160405280156103fd57816020015b6103ea610f05565b8152602001906001900390816103e25790505b509250600085866001876104119190611781565b61041b91906117b5565b61042591906117f7565b905060006001876001886104399190611781565b61044391906117b5565b61044d91906117f7565b90506000548111156104b757600167ffffffffffffffff811115610474576104736112f8565b5b6040519080825280602002602001820160405280156104ad57816020015b61049a610f05565b8152602001906001900390816104925790505b5094505050610651565b60008190505b82811161064d5760026000828152602001908152602001600020604051806060016040529081600082015481526020016001820180546104fc9061185a565b80601f01602080910402602001604051908101604052809291908181526020018280546105289061185a565b80156105755780601f1061054a57610100808354040283529160200191610575565b820191906000526020600020905b81548152906001019060200180831161055857829003601f168201915b5050505050815260200160028201805461058e9061185a565b80601f01602080910402602001604051908101604052809291908181526020018280546105ba9061185a565b80156106075780601f106105dc57610100808354040283529160200191610607565b820191906000526020600020905b8154815290600101906020018083116105ea57829003601f168201915b5050505050815250508660018361061e9190611781565b8151811061062f5761062e61188b565b5b60200260200101819052508080610645906118ba565b9150506104bd565b5050505b505092915050565b8160008160ff16118015610671575060058160ff1611155b6106b0576040517f08c379a00000000000000000000000000000000000000000000000000000000081526004016106a790611974565b60405180910390fd5b84600015156003600083815260200190815260200160002060003373ffffffffffffffffffffffffffffffffffffffff1673ffffffffffffffffffffffffffffffffffffffff16815260200190815260200160002060009054906101000a900460ff16151514610755576040517f08c379a000000000000000000000000000000000000000000000000000000000815260040161074c906119e0565b60405180910390fd5b60006040518060a001604052808881526020013373ffffffffffffffffffffffffffffffffffffffff1681526020018660ff16815260200187815260200185815250905080600160003373ffffffffffffffffffffffffffffffffffffffff1673ffffffffffffffffffffffffffffffffffffffff16815260200190815260200160002060008981526020019081526020016000206000820151816000015560208201518160010160006101000a81548173ffffffffffffffffffffffffffffffffffffffff021916908373ffffffffffffffffffffffffffffffffffffffff16021790555060408201518160010160146101000a81548160ff021916908360ff16021790555060608201518160020190816108719190611bac565b5060808201518160030190816108879190611bac565b50905050600060046000898152602001908152602001600020604051806060016040529081600082015481526020016001820160009054906101000a900460ff1660ff1660ff16815260200160028201548152505090506000600182604001516108f191906117f7565b90506000818860ff168460400151856020015160ff1661091191906117b5565b61091b91906117f7565b6109259190611cad565b905081600460008c81526020019081526020016000206002018190555080600460008c815260200190815260200160002060010160006101000a81548160ff021916908360ff160217905550600560003373ffffffffffffffffffffffffffffffffffffffff1673ffffffffffffffffffffffffffffffffffffffff16815260200190815260200160002060405180604001604052808c81526020018a60ff1681525090806001815401808255809150506001900390600052602060002090600202016000909190919091506000820151816000015560208201518160010160006101000a81548160ff021916908360ff16021790555050506001600360008c815260200190815260200160002060003373ffffffffffffffffffffffffffffffffffffffff1673ffffffffffffffffffffffffffffffffffffffff16815260200190815260200160002060006101000a81548160ff021916908315150217905550893373ffffffffffffffffffffffffffffffffffffffff167fcbc9fa25b0300e702c3f2184101af8114b692c3d648cf28c323d482d0b374fc060405160405180910390a350505050505050505050565b610adf610f26565b600160003373ffffffffffffffffffffffffffffffffffffffff1673ffffffffffffffffffffffffffffffffffffffff16815260200190815260200160002060008381526020019081526020016000206040518060a0016040529081600082015481526020016001820160009054906101000a900473ffffffffffffffffffffffffffffffffffffffff1673ffffffffffffffffffffffffffffffffffffffff1673ffffffffffffffffffffffffffffffffffffffff1681526020016001820160149054906101000a900460ff1660ff1660ff168152602001600282018054610bc79061185a565b80601f0160208091040260200160405190810160405280929190818152602001828054610bf39061185a565b8015610c405780601f10610c1557610100808354040283529160200191610c40565b820191906000526020600020905b815481529060010190602001808311610c2357829003601f168201915b50505050508152602001600382018054610c599061185a565b80601f0160208091040260200160405190810160405280929190818152602001828054610c859061185a565b8015610cd25780601f10610ca757610100808354040283529160200191610cd2565b820191906000526020600020905b815481529060010190602001808311610cb557829003601f168201915b5050505050815250509050919050565b600080826001811015610d2a576040517f08c379a0000000000000000000000000000000000000000000000000000000008152600401610d2190611d2a565b60405180910390fd5b600060046000868152602001908152602001600020604051806060016040529081600082015481526020016001820160009054906101000a900460ff1660ff1660ff168152602001600282015481525050905080602001518160400151935093505050915091565b81816000825111610dd8576040517f08c379a0000000000000000000000000000000000000000000000000000000008152600401610dcf90611d96565b60405180910390fd5b6000815111610e1c576040517f08c379a0000000000000000000000000000000000000000000000000000000008152600401610e1390611e02565b60405180910390fd5b6000806000815480929190610e30906118ba565b919050559050600060405180606001604052808381526020018781526020018681525090508060026000848152602001908152602001600020600082015181600001556020820151816001019081610e889190611bac565b506040820151816002019081610e9e9190611bac565b50905050817f259101de1f87b04b9ee0332ce5e3cc508014004bf283424aead6cd8692f5cf9887604051610ed29190611e5b565b60405180910390a2505050505050565b60005481565b604051806040016040528060008152602001600060ff1681525090565b60405180606001604052806000815260200160608152602001606081525090565b6040518060a0016040528060008152602001600073ffffffffffffffffffffffffffffffffffffffff168152602001600060ff16815260200160608152602001606081525090565b600081519050919050565b600082825260208201905092915050565b6000819050602082019050919050565b6000819050919050565b610fad81610f9a565b82525050565b600060ff82169050919050565b610fc981610fb3565b82525050565b604082016000820151610fe56000850182610fa4565b506020820151610ff86020850182610fc0565b50505050565b600061100a8383610fcf565b60408301905092915050565b6000602082019050919050565b600061102e82610f6e565b6110388185610f79565b935061104383610f8a565b8060005b8381101561107457815161105b8882610ffe565b975061106683611016565b925050600181019050611047565b5085935050505092915050565b6000602082019050818103600083015261109b8184611023565b905092915050565b6000604051905090565b600080fd5b600080fd5b6110c081610f9a565b81146110cb57600080fd5b50565b6000813590506110dd816110b7565b92915050565b600080604083850312156110fa576110f96110ad565b5b6000611108858286016110ce565b9250506020611119858286016110ce565b9150509250929050565b600081519050919050565b600082825260208201905092915050565b6000819050602082019050919050565b600081519050919050565b600082825260208201905092915050565b60005b8381101561118957808201518184015260208101905061116e565b60008484015250505050565b6000601f19601f8301169050919050565b60006111b18261114f565b6111bb818561115a565b93506111cb81856020860161116b565b6111d481611195565b840191505092915050565b60006060830160008301516111f76000860182610fa4565b506020830151848203602086015261120f82826111a6565b9150506040830151848203604086015261122982826111a6565b9150508091505092915050565b600061124283836111df565b905092915050565b6000602082019050919050565b600061126282611123565b61126c818561112e565b93508360208202850161127e8561113f565b8060005b858110156112ba578484038952815161129b8582611236565b94506112a68361124a565b925060208a01995050600181019050611282565b50829750879550505050505092915050565b600060208201905081810360008301526112e68184611257565b905092915050565b600080fd5b600080fd5b7f4e487b7100000000000000000000000000000000000000000000000000000000600052604160045260246000fd5b61133082611195565b810181811067ffffffffffffffff8211171561134f5761134e6112f8565b5b80604052505050565b60006113626110a3565b905061136e8282611327565b919050565b600067ffffffffffffffff82111561138e5761138d6112f8565b5b61139782611195565b9050602081019050919050565b82818337600083830152505050565b60006113c66113c184611373565b611358565b9050828152602081018484840111156113e2576113e16112f3565b5b6113ed8482856113a4565b509392505050565b600082601f83011261140a576114096112ee565b5b813561141a8482602086016113b3565b91505092915050565b61142c81610fb3565b811461143757600080fd5b50565b60008135905061144981611423565b92915050565b60008060008060808587031215611469576114686110ad565b5b6000611477878288016110ce565b945050602085013567ffffffffffffffff811115611498576114976110b2565b5b6114a4878288016113f5565b93505060406114b58782880161143a565b925050606085013567ffffffffffffffff8111156114d6576114d56110b2565b5b6114e2878288016113f5565b91505092959194509250565b600060208284031215611504576115036110ad565b5b6000611512848285016110ce565b91505092915050565b600073ffffffffffffffffffffffffffffffffffffffff82169050919050565b60006115468261151b565b9050919050565b6115568161153b565b82525050565b600060a0830160008301516115746000860182610fa4565b506020830151611587602086018261154d565b50604083015161159a6040860182610fc0565b50606083015184820360608601526115b282826111a6565b915050608083015184820360808601526115cc82826111a6565b9150508091505092915050565b600060208201905081810360008301526115f3818461155c565b905092915050565b61160481610fb3565b82525050565b61161381610f9a565b82525050565b600060408201905061162e60008301856115fb565b61163b602083018461160a565b9392505050565b60008060408385031215611659576116586110ad565b5b600083013567ffffffffffffffff811115611677576116766110b2565b5b611683858286016113f5565b925050602083013567ffffffffffffffff8111156116a4576116a36110b2565b5b6116b0858286016113f5565b9150509250929050565b60006020820190506116cf600083018461160a565b92915050565b600082825260208201905092915050565b7f70616765206f72206c696d697420696e76616c69640000000000000000000000600082015250565b600061171c6015836116d5565b9150611727826116e6565b602082019050919050565b6000602082019050818103600083015261174b8161170f565b9050919050565b7f4e487b7100000000000000000000000000000000000000000000000000000000600052601160045260246000fd5b600061178c82610f9a565b915061179783610f9a565b92508282039050818111156117af576117ae611752565b5b92915050565b60006117c082610f9a565b91506117cb83610f9a565b92508282026117d981610f9a565b915082820484148315176117f0576117ef611752565b5b5092915050565b600061180282610f9a565b915061180d83610f9a565b925082820190508082111561182557611824611752565b5b92915050565b7f4e487b7100000000000000000000000000000000000000000000000000000000600052602260045260246000fd5b6000600282049050600182168061187257607f821691505b6020821081036118855761188461182b565b5b50919050565b7f4e487b7100000000000000000000000000000000000000000000000000000000600052603260045260246000fd5b60006118c582610f9a565b91507fffffffffffffffffffffffffffffffffffffffffffffffffffffffffffffffff82036118f7576118f6611752565b5b600182019050919050565b7f566f74652072617465732063616e6e6f7420626520656d70747920616e64206d60008201527f6178696d756d2035000000000000000000000000000000000000000000000000602082015250565b600061195e6028836116d5565b915061196982611902565b604082019050919050565b6000602082019050818103600083015261198d81611951565b9050919050565b7f546869732070726f647563742068617320766f74656420627920796f75000000600082015250565b60006119ca601d836116d5565b91506119d582611994565b602082019050919050565b600060208201905081810360008301526119f9816119bd565b9050919050565b60008190508160005260206000209050919050565b60006020601f8301049050919050565b600082821b905092915050565b600060088302611a627fffffffffffffffffffffffffffffffffffffffffffffffffffffffffffffffff82611a25565b611a6c8683611a25565b95508019841693508086168417925050509392505050565b6000819050919050565b6000611aa9611aa4611a9f84610f9a565b611a84565b610f9a565b9050919050565b6000819050919050565b611ac383611a8e565b611ad7611acf82611ab0565b848454611a32565b825550505050565b600090565b611aec611adf565b611af7818484611aba565b505050565b5b81811015611b1b57611b10600082611ae4565b600181019050611afd565b5050565b601f821115611b6057611b3181611a00565b611b3a84611a15565b81016020851015611b49578190505b611b5d611b5585611a15565b830182611afc565b50505b505050565b600082821c905092915050565b6000611b8360001984600802611b65565b1980831691505092915050565b6000611b9c8383611b72565b9150826002028217905092915050565b611bb58261114f565b67ffffffffffffffff811115611bce57611bcd6112f8565b5b611bd8825461185a565b611be3828285611b1f565b600060209050601f831160018114611c165760008415611c04578287015190505b611c0e8582611b90565b865550611c76565b601f198416611c2486611a00565b60005b82811015611c4c57848901518255600182019150602085019450602081019050611c27565b86831015611c695784890151611c65601f891682611b72565b8355505b6001600288020188555050505b505050505050565b7f4e487b7100000000000000000000000000000000000000000000000000000000600052601260045260246000fd5b6000611cb882610f9a565b9150611cc383610f9a565b925082611cd357611cd2611c7e565b5b828204905092915050565b7f50726f647563744964206d7573742062652067726561746572207468616e2030600082015250565b6000611d146020836116d5565b9150611d1f82611cde565b602082019050919050565b60006020820190508181036000830152611d4381611d07565b9050919050565b7f50726f64756374206e616d652063616e6e6f7420626520656d70747900000000600082015250565b6000611d80601c836116d5565b9150611d8b82611d4a565b602082019050919050565b60006020820190508181036000830152611daf81611d73565b9050919050565b7f50726f64756374206c696e6b2063616e6e6f7420626520656d70747900000000600082015250565b6000611dec601c836116d5565b9150611df782611db6565b602082019050919050565b60006020820190508181036000830152611e1b81611ddf565b9050919050565b6000611e2d8261114f565b611e3781856116d5565b9350611e4781856020860161116b565b611e5081611195565b840191505092915050565b60006020820190508181036000830152611e758184611e22565b90509291505056fea2646970667358221220eca5edfa2fda48f111bc884778eac724bd8260eaea68abc62a6226da5b2a29f164736f6c63430008180033",
  "linkReferences": {},
  "deployedLinkReferences": {}
}